{
  "contractName": "Token",
  "abi": [
    {
      "constant": true,
      "inputs": [],
      "name": "name",
      "outputs": [
        {
          "name": "",
          "type": "string"
        }
      ],
      "payable": false,
      "stateMutability": "view",
      "type": "function"
    },
    {
      "constant": true,
      "inputs": [],
      "name": "INITIAL_SUPPLY",
      "outputs": [
        {
          "name": "",
          "type": "uint256"
        }
      ],
      "payable": false,
      "stateMutability": "view",
      "type": "function"
    },
    {
      "constant": true,
      "inputs": [],
      "name": "decimals",
      "outputs": [
        {
          "name": "",
          "type": "uint256"
        }
      ],
      "payable": false,
      "stateMutability": "view",
      "type": "function"
    },
    {
      "constant": true,
      "inputs": [],
      "name": "symbol",
      "outputs": [
        {
          "name": "",
          "type": "string"
        }
      ],
      "payable": false,
      "stateMutability": "view",
      "type": "function"
    },
    {
      "inputs": [
        {
          "name": "_name",
          "type": "string"
        },
        {
          "name": "_symbol",
          "type": "string"
        },
        {
          "name": "creator",
          "type": "address"
        }
      ],
      "payable": false,
      "stateMutability": "nonpayable",
      "type": "constructor"
    }
  ],
  "bytecode": "0x608060405260206040519081016040528060008152506000908051906020019061002a9291906100df565b506020604051908101604052806000815250600190805190602001906100519291906100df565b5060028055600254600a0a6127100260035534801561006f57600080fd5b506040516104e43803806104e483398101806040528101908080518201929190602001805182019291906020018051906020019092919050505082600090805190602001906100bf9291906100df565b5081600190805190602001906100d69291906100df565b50505050610184565b828054600181600116156101000203166002900490600052602060002090601f016020900481019282601f1061012057805160ff191683800117855561014e565b8280016001018555821561014e579182015b8281111561014d578251825591602001919060010190610132565b5b50905061015b919061015f565b5090565b61018191905b8082111561017d576000816000905550600101610165565b5090565b90565b610351806101936000396000f300608060405260043610610062576000357c0100000000000000000000000000000000000000000000000000000000900463ffffffff16806306fdde03146100675780632ff2e9dc146100f7578063313ce5671461012257806395d89b411461014d575b600080fd5b34801561007357600080fd5b5061007c6101dd565b6040518080602001828103825283818151815260200191508051906020019080838360005b838110156100bc5780820151818401526020810190506100a1565b50505050905090810190601f1680156100e95780820380516001836020036101000a031916815260200191505b509250505060405180910390f35b34801561010357600080fd5b5061010c61027b565b6040518082815260200191505060405180910390f35b34801561012e57600080fd5b50610137610281565b6040518082815260200191505060405180910390f35b34801561015957600080fd5b50610162610287565b6040518080602001828103825283818151815260200191508051906020019080838360005b838110156101a2578082015181840152602081019050610187565b50505050905090810190601f1680156101cf5780820380516001836020036101000a031916815260200191505b509250505060405180910390f35b60008054600181600116156101000203166002900480601f0160208091040260200160405190810160405280929190818152602001828054600181600116156101000203166002900480156102735780601f1061024857610100808354040283529160200191610273565b820191906000526020600020905b81548152906001019060200180831161025657829003601f168201915b505050505081565b60035481565b60025481565b60018054600181600116156101000203166002900480601f01602080910402602001604051908101604052809291908181526020018280546001816001161561010002031660029004801561031d5780601f106102f25761010080835404028352916020019161031d565b820191906000526020600020905b81548152906001019060200180831161030057829003601f168201915b5050505050815600a165627a7a7230582023d0a1b15e5852975d87689864c0b12c2206bdcb41a8d7fb88af8cda57af33c00029",
  "source": " pragma solidity ^0.4.24;\n\n//import \"zos-lib/contracts/migrations/Migratable.sol\";\n/*import \"openzeppelin-solidity/contracts/token/ERC20/StandardToken.sol\";\nimport \"openzeppelin-solidity/contracts/ownership/Ownable.sol\";\n*/\ncontract TokenFactory{\n    address[] public deployedTokens;\n\n   function createToken(string name, string symbol) public {\n        address newToken = new Token(name,symbol,msg.sender);\n        deployedTokens.push(newToken);            \n    }\n\n    function getDeployedTokens() public view returns (address[]) {\n        return deployedTokens;\n    }\n\n}\n\ncontract Token  {\n    string public name = \"\"; \n    string public symbol = \"\";\n    uint public decimals = 2;\n    uint public INITIAL_SUPPLY = 10000 * (10 ** decimals);\n\n    constructor(string _name, string _symbol, address creator) {\n       // owner = creator;        \n        name = _name;\n        symbol = _symbol;\n       // totalSupply_ = INITIAL_SUPPLY;\n    }    \n}\n",
  "sourcePath": "/home/user/delteme/contracts/TokenFactory.sol",
  "compiler": {
    "name": "solc",
    "version": "0.4.24+commit.e67f0147.Emscripten.clang"
  },
  "schemaVersion": "2.0.1",
  "updatedAt": "2018-07-26T18:28:46.496Z"
}